:020000040000fa
:080000000001040000000000f3
:020000040000fa
:100008009a0100009a0100009a0100009a0100007c
:100018009a0100009a0100009a0100009a0100006c
:10002800140b00009a0100009a0100009a010000d8
:100038009a0100009a0100009a0100009a0100004c
:100048009a0100009a0100009a010000040b0000c8
:100058009a0100009a0100009a0100009a0100002c
:100068009a0100009a0100009a0100009a0100001c
:100078009a0100009a0100009a0100009a0100000c
:100088009a0100009a0100009a0100001c0b000070
:100098009a0100009a0100009a0100009a010000ec
:1000a8009a0100009a0100009a0100009a010000dc
:1000b8009a0100009a0100009a0100009a010000cc
:1000c8009a0100009a0100009a0100009a010000bc
:1000d8009a0100009a0100009a0100009a010000ac
:1000e8009a0100009a0100009a0100009a0100009c
:0800f8009a0100009a010000ca
:020000040000fa
:100108009a0100009a0100009a0100009a0100007b
:100118009a0100009a0100009a0100009a0100006b
:10012800140b00009a0100009a0100009a010000d7
:100138009a0100009a0100009a0100009a0100004b
:100148009a0100009a0100009a010000040b0000c7
:100158009a0100009a0100009a0100009a0100002b
:100168009a0100009a0100009a0100009a0100001b
:100178009a0100009a0100009a0100009a0100000b
:100188009a0100009a0100009a0100001c0b00006f
:100198009a0100009a0100009a0100009a010000eb
:1001a8009a0100009a0100009a0100009a010000db
:1001b8009a0100009a0100009a0100009a010000cb
:1001c8009a0100009a0100009a0100009a010000bb
:1001d8009a0100009a0100009a0100009a010000ab
:1001e8009a0100009a0100009a0100009a0100009b
:0801f8009a0100009a010000c9
:020000040000fa
:100200000f8220000eff20000e0188000000000079
:10021000000020000000e000020032000001200089
:10022000200288000c000700e0b720000100200039
:1002300011000700000020000000e0000200320072
:10024000000002000000000044090200000000005d
:100250000040da000000fe004440a9000000200039
:100260000000e0000300320000002000a001880030
:100270004440a8000000060091018800800078003a
:100280000000eb0015003700e280400032a0b4000f
:100290009101ba00e280400032a0b4009102ba009d
:1002a000e280400032a0b4000002eb00472bde00e9
:1002b000f507b200602ce10004003a000059eb00a1
:1002c0008301e900fdff3e00040037006128e100e2
:1002d000010032000082eb00040007001101ba00a7
:1002e0000200e000e8ff3a00000006003159ba00c1
:1002f0008301e9000c0032002159ba008301e900b2
:10030000080032000400e00003003a00e2804000f0
:1003100032a0b400f5ff370011d9ba008301e9001b
:10032000faff3a008100e800e180400032a0b4000a
:10033000000006000040da000000fe0003f0a2000a
:10034000889fbe008a9fbe008c1f7800f7000700c0
:10035000fe0033006450e1004f0032006420e100f1
:100360005200320003826c0007003b000905d000f8
:100370000306d000820f54000c065d000200390015
:10038000020032008901780003067800858255005a
:1003900004003d000003fd008103fd008502ea002a
:1003a0008b854200840f720002003b006000100049
:1003b000e08018006011b8000005eb007a28e10029
:1003c0000a00390006007800c75ddd00f707b200bb
:1003d000878075002d003700828171000a01780046
:1003e000610560008180d1000080d3008502e900b2
:1003f000f9ff3b00060440008784480002003b00f0
:1004000060041400e0841c000988a3000700320087
:100410008a81710082817100610164008904d100c8
:100420000884d3008b05e800170037000978a30083
:1004300013003a000b00e000130034008b05e900c4
:100440000804440089844c000a4474000978a3001d
:100450000d003a000b00e000070034008b05e900b6
:100460000804440089844c0001003a000b0020007d
:100470000978a300f7ff32000001eb00020037000b
:10048000828171000a0178006d0007000cf0a7005e
:1004900001f0a000b60037006420e10002003a003d
:1004a000838f6c00b60033000801be000200be005e
:1004b000af003700889fbe008a9fbe008c1f780067
:1004c0009a000700a100330003866c006450e1002d
:1004d0002e0032006420e100330032006150e10060
:1004e0002f0032006120e100310032008585550087
:1004f000eb07b000090020000804200005003700c9
:100500000804440089844c000a00310006034300bb
:1005100087834b000001530081815b00f8ff3300ab
:100520000203be000800a0000804440089844c00b7
:10053000f6ff3900c639dd00830173000100320087
:10054000130020008904d1000884d3000998a30077
:10055000050032000800a7000300a0008904d100b4
:100560000884d3008b05e8008904d1000884d300f7
:100570000001eb000281d2003100070001f0a10070
:100580000cf0a70001f0a000790037006420e10022
:100590007b0032000801be000200be00f7ff3700fa
:1005a0006120e100760032006000b800f3ff370000
:1005b0000000200001f82700f0ff370014002000a1
:1005c000a6003700f4ff2f00a40037000001be0092
:1005d000410007000470a70003f0a10003f8a30086
:1005e00013003a006509b10010003200090035001f
:1005f0006928e10002003500010028000000050024
:1006000000004000818048008502e900fcff3a00bc
:1006100000000600f88f4200050035008100d1007f
:100620000080d3008502e800fcff3a0000000600cd
:100630008000eb00000005006011b800a200370048
:1006400081002000618055000b003d000b00200060
:1006500061fe2f000100e1001d0034008281710065
:10066000610164008904d1000884d3000000e8001f
:10067000faff3a007100200061006400030070007e
:10068000020060000900320061044400e0844c0074
:100690000988a500050032008b05e8006808e10024
:1006a00002003a008904d1000884d300f20f200030
:1006b0000258e10005003d00c75ddd00f907b2000a
:1006c0008980750008007800000006000bf82700fc
:1006d0008b00780000000500c70ade00f107b200b9
:1006e000f50fb20008003200e1cf420002003200f4
:1006f0000170a00024000500810f7000010032008d
:100700000408050044000500810f700002003a0053
:10071000140005008502e9000000400081c0480087
:10072000fcff3b000170a000240005000004be0097
:10073000e9ff07000003be000405be000200be0082
:10074000e5ff0700844f7500000006000200be00b0
:100750006450e100050036006420e100020036002c
:100760000968a30001003a000800be000160a00073
:100770004f0678004f05be004f04be000000060083
:10078000f0ff2f00f1ff2700f9ff3700889fbe0020
:100790008a9fbe008c1f7800e4ff0700ebff330048
:1007a00003866c006450e100240032006420e10004
:1007b000270032006150e100220032006120e10098
:1007c000210032008b854200eb07b1000134b800f4
:1007d000003ab8000804420089844a00013ab8008f
:1007e0000030b8008880400009014a00040033004e
:1007f0000000400081804800020149008b05e900ab
:10080000c909dd00830170000100320013002000df
:10081000c814de004814dd004709de001200b200f3
:10082000c808de000884700085ff070001f0a10001
:100830000cf0a70001f0a000cdff37006120e1001f
:10084000cfff32000801be000200be00f7ff3700f4
:100850006150e100fcff3a00c9ff3700889fbe00ed
:100860008a9fbe00841f7800b0ff07004f00780009
:1008700011003300f0ff2f00838f6c0006003b0057
:10088000040565000a00a7000800370009f0a6006b
:100890001000200008003700820f5400838f5c0096
:1008a000030039001000200001003e00000020007d
:1008b00009f0a7000000ea004f05be004f04be008b
:1008c0000000e00000000600889fbe008a9fbe0076
:1008d0000082700004027100048271002600320060
:1008e0000004be000200be006011b8006b092000c9
:1008f000950220000182cf000a0039000541b100b5
:100900000082cf00070039000541b1000982cf0005
:10091000040039000541b1000882cf000100390010
:100920000541b10005425200120032000a003b00ae
:1009300082817100610164008100d1000080d300d8
:100940008984d3000884d3008b05e8000442e800c2
:10095000f7ff3a00070037000804440089844c0080
:1009600000004800818048008b05e9000442e9004e
:10097000f9ff3a0032ff07004f05be004f04be00ea
:04098000000006006d
:020000040000fa
:100984000000fa00841c80000480a1000490a100ef
:1009940004a0a000841c880091e3a80091a3a900ee
:1009a4009163a900941c80000460a1000470a1005c
:1009b400941c8800951c800004fc2f0004826200b3
:1009c4000430a000941c880094e3a800a41c8000b8
:1009d4000400a0000410a1000420a100a41c8800ad
:1009e400a41c80000430a1000440a0000450a00016
:1009f400a41c8800a41c80000480a0000490a10012
:100a040004a0a000a41c880094c3a8000002eb006a
:100a1400b41c88008760a900f40f2000c41c88005f
:100a24000405800004c0a00004d0a00004e0a000dd
:100a3400040588008f60a8008e43a9008e03a900d6
:100a4400f41b80000400a1000410a0000420a100f5
:100a5400f41b8800d4ff210084198800d4ff2100ee
:100a6400c419880084aa2000041888004455210071
:100a7400841888000002eb00441888000002eb0090
:100a8400c41888000002eb00041988000002eb007f
:100a940044198800741b80000400a0000410a10005
:100aa400741b8800741a80000400a1000410a000c4
:100ab400741a8800840a2500041b880044852a00cf
:100ac400841a8800241b80000430a1000440a10083
:100ad4000450a1000460a000241b8800a41a800014
:100ae4000430a1000440a1000450a1000460a0004f
:100af400a41a88000080fa00000006000000fa0032
:100b040081e0a8008c00a90083e0a9008200a8006d
:100b1400a40480000400a1000410a0000420a0008c
:100b2400a40488008400a9008c00a8000080fa00b6
:100b3400000006000000fa004515800094ff2f0015
:100b44000482620044158800a1e2a900a1a2a900c0
:100b5400a062a900041580000480a1000490a100f3
:100b640004158800041580000450a0000460a0004f
:100b74000470a00004158800a042a8001415800089
:100b840004d0a00004e0a00004f0a0001415880024
:100b9400a342a900a222a900141580000480a10088
:100ba4000490a10014158800141580000420a100ed
:100bb4000430a1000440a1000450a10014158800d1
:100bc400a4e2a9002515800004fc2f000482620021
:100bd400f401b300241588002515800004f02100d9
:100be4000502720024158800341580000400a0005a
:100bf4000410a1000420a1000430a10034158800d1
:100c0400a682a9008560a9008d60a800c4048000a4
:100c140004c0a00004d0a10004e0a000c404880023
:100c24000080fa00000006000000fa00451580006c
:100c34008403200005027200441588001409800012
:100c44000480a1000490a10004a0a100140988005c
:100c540023e1a90023a1a90022e1a90022c1a9003e
:100c64002241a8002221a9002501a80024e1a8000e
:100c7400240980000440a1000450a0000460a100e5
:100c84002409880004ee2200340988000082eb0065
:100c940044098800140980000480a0000490a00086
:100ca40004a0a000140988000080fa0000000600d7
:100cb4000000fa00c1e1a900040e80000420a10094
:100cc4000430a100040e8800040e80000440a1003a
:100cd4000450a1000460a1000470a100040e880067
:100ce400040e80000400a1000410a100040e88007a
:100cf400c901a800c921a800c801a800c821a800ea
:100d04000002eb00140e880024072000240e880043
:100d14000080fa00000006000000fa000de2a900bd
:100d24000da2a9000d42a8000ce2a80064108000e6
:100d34000410a1000420a100641088000c02a90082
:100d44000fe2a9000f62a900741080000460a100e2
:100d54000470a100741088000ea2a900b400200041
:100d6400a41088008540a9008520a900c40480003f
:100d74000480a0000490a10004a0a000c404880082
:100d8400c40480000440a0000450a1000460a0003a
:100d9400c40488008d40a8008d20a8000cc2a900be
:100da4000de2a8000f42a8000080fa00000006002f
:100db4000600fa00200798002e029000040f780025
:100dc4000a0037009410200014079800030037002d
:100dd4001e0290000402e900140798001e0290000d
:100de400e00f5200faff3a001e0fe9001e027800dd
:100df400e00f5200f3ff3a000080fa000000060002
:100e04001000fa00000f78001207980023079800da
:100e1400340798004507980056079800670798001c
:100e2400710798001e0278001e039000ae03900024
:100e3400068abe001e0278003e039000ce03900096
:100e440026029800370298001e0278005e03900084
:100e5400ee03900046029800570298001e027800a4
:100e64003ebb9700cebb97006602980077029800bd
:100e74001e027800fe039000070a98001e02780004
:100e84001ebb9700aebb9700360a9800470a98002d
:100e94001e0278007eb397008ebb9700760a9800f6
:100ea400071298001e0278005eb39700eeb3970015
:100eb40036129800471298001e0278003eb397003d
:100ec400ceb39700161a9800271a98000080fa00eb
:100ed400000006001200fa00889fbe008a9fbe0030
:100ee4008c9fbe00200798003207980043079800a3
:100ef40054079800650798002e0290005e03900046
:100f0400ee039000560a9800670a98005e0190006c
:100f1400ee0190003e009000ce00900006fd070018
:100f24000002be002e03900074139800051b980065
:100f34002e02900064039000f40390002e029000af
:100f4400c4129000341290000401be000600be00da
:100f54000dfe07000002be000404be002e02900035
:100f6400040a9000050020000400be00b1fd070043
:100f74000002be000401be000800be004cfd0700d4
:100f84000002be000404be002e0290002403900060
:100f9400b40390002e029000f402900064029000ca
:100fa4000401be000600be00f7fd07000002be00fb
:100fb4000405be002e029000540b9000e40b900038
:100fc4002e02900084129000740a90000401be0066
:100fd4000600be00d8fc07000002be000401be00eb
:100fe4000a00be00e8fd07000002be000405be00c2
:100ff4002e02900064069000f40690002e029000e9
:1010040064039000f403900076079800070f98009b
:101014002e029000040a9000050020000400be0087
:1010240084fd07000002be000401be007e009000a3
:101034008e0890001efd07000002be000401be00e1
:101044000c00be00bdfc07000002be000401be008f
:101054000a00be0016fd07000002be000401be0027
:101064000800be00b5fc07000002be002e0390007d
:1010740014139800251398002e0290001403be0048
:101084002e029000841a9000741290000401be0095
:101094000600be00bcfd07000002be002e03900047
:1010a40054139800651398002e029000e4129000e7
:1010b400541290003e019000ce0190000400be0046
:1010c400fbfc07000002be000401be000400be00d9
:1010d4009afc07000002be0002002000632e2400d8
:1010e4000400be00a8fd07000002be0002002000ac
:1010f40003f823000400be008ffc07000002be00ba
:10110400048fbe0018c0b300020020005336240030
:101114001e00be002afd070000027800e00f520006
:1011240001003d000044eb00e04f54000500320094
:10113400540e2000e44088000002eb00f4408800d4
:101144003300370018c0b3000200200053362c00cf
:101154001e00be0018fd070000027800e00f5200d8
:10116400010034000044eb00e04f5400050032005d
:101174000002eb00e4408800540e2000f440880094
:101184002300370018c0b3006011b8001e00be0071
:1011940009fd070000027800e00f5200010035004d
:1011a4000044eb00e04f54000d0032000002eb005d
:1011b400e44088000200200003002c001e00be0052
:1011c40071fd07000002be000400be00fefc070023
:1011d4000002be0004027800f44088000c003700ce
:1011e4001e02be000401be000400be0053fc070042
:1011f4000002be000400be00f3fc07000002be00b3
:1012040004027800e44088000002eb00f440880007
:10121400c4812000040078004f06be004f05be00c4
:101224004f04be000080fa00000006000200fa002d
:10123400000f78001e027800e40a9000540a90001f
:101244001e037800740b9800051398001e027800a2
:10125400a4129000141290001e0378003413980016
:10126400451398001e027800841a900074129000ae
:101274001e037800141b9800251b98000080fa00b8
:10128400000006004200fa000042eb0024479800e8
:10129400bbfd070019fe070026fe070062fe0700db
:1012a40083fe0700d862a900d882a900d8a2a900a9
:1012b4006022b80024079800350798006022b8001f
:1012c4004407980055079800b440800005002000aa
:1012d4006600200007002000860f5200878f5a0006
:1012e400b2003e0004600100060037003100370000
:1012f400ae003700ad0037008400370055003700da
:101304006f0037001e0278008002eb00050a7800a7
:101314001e82e8008002eb00050a780004ee220039
:1013240034098800a1e2a800c1e1a8006c004700cc
:101334006022b800849fbe006022b800849fbe0073
:101344006022b800849fbe006022b800849fbe0063
:101354000400200005122400849fbe00a100200088
:101364006033b800d4cc2c00c5dc2300020020007c
:1013740003f82300a2fe0700f4875700841c8000b2
:101384000480a1000490a10004a0a100841c880092
:1013940000000000851c8000040e2000048262000e
:1013a400e00f5200fbff3a0064002000b4408800c4
:1013b4007e00370034098000050020000400be00d0
:1013c4009cfc07000002be00c21e250083db230034
:1013d4000400be00ecfc07000002be0044079800b5
:1013e40055079800048020001402780005002000ae
:1013f4000400be008ffc07000002be00c21e2500d0
:1014040083db23000400be00dffc07000002be00f3
:1014140024079800350798006c0347004e0290009b
:10142400de0290002e019000be01900006007800bc
:10143400a8fe070000027800040f78006c02470041
:101444000400780079ff070044002000b4408800bd
:1014540056003700048020001402780005002000a4
:101464000400be0073fc07000002be00640798007d
:1014740075079800048020001402900005002000e5
:101484000400be006bfc07000002be00040f9800bd
:10149400150f98000480200024029000050020000d
:1014a4000400be0063fc07000002be00240f980085
:1014b400350f980044002000b44088003b003700fa
:1014c4001e02780025072000050a78001e82e80025
:1014d4008002eb00050a7800c54080005404200017
:1014e400848f5200300036001e0278008002eb0028
:1014f400050a78001e82e8008002eb00050a7800e5
:1015040044002000b44088002800370004802000f4
:1015140034029000e10f520003003200e30f520046
:10152400040032001200370014002000b440880088
:101534000f00370044002000641b88003409800039
:10154400341b8800441c8000441b8800541c800009
:10155400541b88006e63a80000000000741b800008
:1015640068026200e00f5200fcff3a000000000035
:101574008480200034029000ea0f520003003200fd
:10158400eb0f520004003200080037006400200012
:10159400b44088000300370054002000b4408800a1
:1015a400000000000100370000000000b44080008b
:1015b400e00f520004003200dc62a900dc82a900c2
:1015c400dca2a80006003700b4408000e60f5200f9
:1015d40003003a00dc62a900dc82a800dca2a900b6
:1015e4001e02780014027800b40e88001e82e800ff
:1015f40014027800c40e8800a0002000ecfd07004f
:1016040031ff3700841f78000000fa008560a900cc
:1016140004148000c44088000080fa004f0278005f
:10162400004006000000fa008400a9000080fa00cf
:1016340000400600849fbe000000fa008760a900f5
:10164400b41c800084408800b41c800064026200e2
:10165400e00f5200010032009643a900b41c800040
:1016640061026200e00f52000e0032009603a900ee
:10167400351c800004802000050a7800451c800089
:101684000480200015029800551c8000048020006e
:1016940025029800651c8000048020003502980013
:1016a4008ee3a900b41c800062026200e00f5200c5
:1016b4000e0032009623a900b51b80008480200010
:1016c400050a7800c51b800084802000150298005c
:1016d400d51b80008480200025029800e51b800033
:1016e40084802000350298007ee3a9000080fa007f
:0816f4004f02be000040060099
:020000040000fa
:1016fc0000080000200000000000000000000000b6
:020000040000fa
:0200000401f009
:04000000fa3d0000c5
:020000040000fa
:0200000401f009
:04000400ff7f00007a
:020000040000fa
:0200000401f009
:04000800ffff0000f6
:020000040000fa
:0200000401f009
:04001400ffff0000ea
:020000040000fa
:0200000401f009
:04001800ffff0000e6
:00000001FF
