:020000040000fa
:080000000001040000000000f3
:020000040000fa
:100008009a0100009a0100009a0100009a0100007c
:100018009a0100009a0100009a0100009a0100006c
:10002800fc0c00009a0100009a010000760d000007
:100038009a0100009a0100009a0100009a0100004c
:100048009a0100006e0d0000660d0000420c0000d1
:100058009a0100009a0100009a0100009a0100002c
:100068009a0100009a0100009a0100009a0100001c
:100078009a0100009a0100009a0100009a0100000c
:100088009a0100009a0100009a010000040d000086
:100098009a0100009a0100009a0100009a010000ec
:1000a8009a0100009a0100009a0100009a010000dc
:1000b8009a0100009a0100009a0100009a010000cc
:1000c8009a0100009a0100009a0100009a010000bc
:1000d8009a0100009a0100009a0100009a010000ac
:1000e8009a0100009a0100009a0100009a0100009c
:0800f8009a0100009a010000ca
:020000040000fa
:100108009a0100009a0100009a0100009a0100007b
:100118009a0100009a0100009a0100009a0100006b
:10012800fc0c00009a0100009a010000760d000006
:100138009a0100009a0100009a0100009a0100004b
:100148009a0100006e0d0000660d0000420c0000d0
:100158009a0100009a0100009a0100009a0100002b
:100168009a0100009a0100009a0100009a0100001b
:100178009a0100009a0100009a0100009a0100000b
:100188009a0100009a0100009a010000040d000085
:100198009a0100009a0100009a0100009a010000eb
:1001a8009a0100009a0100009a0100009a010000db
:1001b8009a0100009a0100009a0100009a010000cb
:1001c8009a0100009a0100009a0100009a010000bb
:1001d8009a0100009a0100009a0100009a010000ab
:1001e8009a0100009a0100009a0100009a0100009b
:0801f8009a0100009a010000c9
:020000040000fa
:10020000ef8820000eff20000e0188000000000093
:10021000000020000000e000020032000001200089
:10022000200288000c00070060d920000100200097
:1002300011000700000020000000e0000200320072
:1002400000000200000000000c0a02000000000094
:100250000040da000000fe004440a9000000200039
:100260000000e0000300320000002000a001880030
:100270004440a8000000060091018800800078003a
:100280000000eb0015003700e280400032a0b4000f
:100290009101ba00e280400032a0b4009102ba009d
:1002a000e280400032a0b4000002eb00472bde00e9
:1002b000f507b200602ce10004003a000059eb00a1
:1002c0008301e900fdff3e00040037006128e100e2
:1002d000010032000082eb00040007001101ba00a7
:1002e0000200e000e8ff3a00000006003159ba00c1
:1002f0008301e9000c0032002159ba008301e900b2
:10030000080032000400e00003003a00e2804000f0
:1003100032a0b400f5ff370011d9ba008301e9001b
:10032000faff3a008100e800e180400032a0b4000a
:10033000000006000040da000000fe006900e10055
:10034000040035006d00e100030034000002b1003c
:10035000010032000000050010000500140020001c
:1003600069003700f4ff2f00670037000001be006e
:100370001c0007000470a70003f0a10003f8a3000d
:1003800013003a006509b100100032000900350081
:100390006928e10002003500010028000000050086
:1003a00000004000818048008502e900fcff3a001f
:1003b00000000600f88f4200050035008100d100e2
:1003c0000080d3008502e800fcff3a000000060030
:1003d0008000eb00000005004f89de0082017800fc
:1003e00064003700c70ade00f107b200f50fb20063
:1003f00008003200e1cf4200020032000170a0008c
:1004000024000500810f700001003200040805007f
:1004100044000500810f700002003a00140005003e
:100420008502e9000000400081c04800fcff3b005d
:100430000170a00024000500889fbe008a9fbe00b6
:100440008c1f7800b0000700b700330003866c00f3
:100450006450e100240032006420e10027003200f3
:100460006150e100220032006120e10021003200f1
:100470008b854200eb07b1000134b800003ab800a8
:100480000804420089844a00013ab8000030b800ec
:100490008880400009014a00040033000000400049
:1004a00081804800020149008b05e900c909dd008f
:1004b000830170000100320013002000c814de0028
:1004c0004814dd004709de001200b200c808de0053
:1004d000088470006600070001f0a1000cf0a7007e
:1004e00001f0a000990037006120e1009b0032007c
:1004f0000801be000200be00f7ff37006150e100b6
:10050000fcff3a0095003700889fbe008a9fbe001e
:10051000841f78007c0007004f0078001100330032
:10052000f0ff2f00838f6c0006003b000405650080
:100530000a00a7000800370009f0a60010002000fc
:1005400008003700820f5400838f5c0003003900dd
:100550001000200001003e000000200009f0a7006c
:100560000000ea004f05be004f04be000000e0009e
:1005700000000600881f7800030478000300e000f4
:1005800007003d0060001000e080180060011900c5
:10059000e081190002003b0001f02d00030037004c
:1005a0000400070008f0a70001f0a0004f04780045
:1005b00000000600889fbe008a9fbe000082700077
:1005c0000402710004827100260032000004be00a3
:1005d0000200be006011b8006b09200095022000e7
:1005e0000182cf000a0039000541b1000082cf002e
:1005f000070039000541b1000982cf00040039002d
:100600000541b1000882cf00010039000541b10069
:1006100005425200120032000a003b008281710044
:10062000610164008100d1000080d3008984d3007f
:100630000884d3008b05e8000442e800f7ff3a0085
:10064000070037000804440089844c00000048007b
:10065000818048008b05e9000442e900f9ff3a0077
:10066000030007004f05be004f04be000000060057
:1006700081002000618055000b003d000b00200030
:1006800061fe2f000100e1001d0034008281710035
:10069000610164008904d1000884d3000000e800ef
:1006a000faff3a007100200061006400030070004e
:1006b000020060000900320061044400e0844c0044
:1006c0000988a500050032008b05e8006808e100f4
:1006d00002003a008904d1000884d300f20f200000
:1006e0000258e10005003d00c75ddd00f907b200da
:1006f0008980750008007800000006000bf82700cc
:100700008b007800000005000004be0035ff0700e4
:100710000003be000405be000200be0031ff07005a
:10072000844f7500000006000200be006450e10026
:10073000050036006420e100020036000968a300cd
:1007400001003a000800be000160a0004f067800da
:100750004f05be004f04be0000000600f0ff2f0052
:10076000f1ff2700f9ff3700ea874700889fbe00a6
:100770008a9fbe00810578008c9fbe008e1f780086
:10078000e08f550001003200800d780000057800f0
:100790008a047800090578003a06fb000c0078000e
:1007a000e6fe0700e00f5000f9ff3a00d4022000f7
:1007b000840f560003003a008a04780018c0b30082
:1007c0000500370000447800b4022000840f560072
:1007d00001003a008a0478008006eb006000b8004f
:1007e0000d0578000ecdb300e4c2b3000100370060
:1007f0008904e800890278007003640004003a006c
:10080000994f120002003a000844a000f8ff370098
:10081000194678000c03fb000603b100e90f5300f2
:1008200017003e000814a0008802fb00e98f560064
:100830000f003200f0826200010032000a05e90078
:10084000e4b79f00a2002000030020008d06e8000e
:10085000010107000e4346006fb297000683fb00bc
:10086000070020000000430081804b00e0ff3700bc
:10087000f0826200deff3a000a05e800dcff370084
:1008800054c6b300844f5600040032008006eb00cb
:1008900054c4b300844f56002e003a0059427800e9
:1008a000d5c2b300854f520002003a000834a000c0
:1008b00003003700b5c2b300854f520001003a0073
:1008c0008904e80007c3b300890278008504780032
:1008d00004c3b30039437800874f5300faff320056
:1008e0008603fb008006eb000703b100e98f53008d
:1008f00015003e00890278008446530015437800b5
:100900008d86fb008603fb000703b100e98f5300cf
:100910000d003e006a69b9008446530055437800d3
:100920008d86fb008603fb00828646000703b1002c
:10093000e98f530004003e006a69b9008446530001
:100940008d86fb008286460068026400010032004a
:100950008d06ea00e08f5500030032006202640059
:1009600001003200850d78009bfe07006011b80081
:100970000002be000003be00e4b79f00d5b79f0091
:10098000f4b79f0087bf9f0074fe07006fb2970007
:1009900000017800dfb297006000b8007fb39700d5
:1009a0008fbb9700e00f5100600032000a854600bf
:1009b00032f82f00820f550003003d002402200072
:1009c000644488005900370000082000800f55005b
:1009d000070034002402200061046400644488009d
:1009e0004d0032000000200001f82f004f003700ba
:1009f000e00f55001f003d000a05ea000600370021
:100a00000400be00922f2000530125006a05550006
:100a10004f0007000002be00e90f5500f8ff3c0040
:100a2000060037000400be0002002000031224006c
:100a30000a05e900460007000002be00e00f55006d
:100a4000f8ff3a000403be00020020000308200063
:100a500087bf9f000400be00f4b79f003ffe070061
:100a60007fb397008fbb9700e00f500025003d003b
:100a70001f003700e00f550007003a002100370043
:100a80000400be00922f2000530125006a05550086
:100a900069fe07000002be00e94f5500f8ff3e0066
:100aa000060037000400be000200200003122400ec
:100ab0000a05e90060fe07000002be00e00f5500d5
:100ac000f8ff3a000403be00f2ff2f00f3f72700ff
:100ad00087bf9f000400be00f4b79f0021fe0700ff
:100ae0007fb397008fbb9700e00f500005003400e4
:100af000610464000b00320000002000010828009f
:100b00000a003700610464000100320007f0a2000f
:100b10000600be00050037000000200001f8270095
:100b20000200370000002000010820004f07780075
:100b30004f06be004f05be004f04be00af00b1001f
:100b40000000060008ff37008000eb0006ff3700ba
:100b5000889fbe008a9fbe008c1f7800eafe0700b7
:100b6000f1fe330003866c006450e1002e00320079
:100b70006420e100330032006150e1002f003200b8
:100b80006120e1003100320085855500eb07b0009f
:100b90000900200008042000050037000804440074
:100ba00089844c000a0031000603430087834b0010
:100bb0000001530081815b00f8ff33000203be0097
:100bc0000800a0000804440089844c00f6ff3900a6
:100bd000c639dd00830173000100320013002000dc
:100be0008904d1000884d3000998a30005003200cd
:100bf0000800a7000300a0008904d1000884d300e6
:100c00008b05e8008904d1000884d3000001eb00c3
:100c10000281d20096fe070001f0a1000cf0a700af
:100c200001f0a000c9fe37006420e100cbfe3200d5
:100c30000801be000200be00f7ff37006120e1009e
:100c4000c6fe32006000b800f3ff3700000020004d
:100c500001f82700f0ff3700020ab900001bb900b5
:100c60000200b8008100420081004300000006003d
:020000040000fa
:100c70000000fa00841c80000480a1000490a10000
:100c800004a0a000841c880091e3a80091a3a900ff
:100c90009163a900941c80000460a1000470a1006d
:100ca000941c8800951c800004fc2f0004826200c4
:100cb0000430a000941c880094e3a800a41c8000c9
:100cc0000400a0000410a1000420a100a41c8800be
:100cd000a41c80000430a1000440a0000450a00027
:100ce000a41c8800a41c80000480a0000490a10023
:100cf00004a0a000a41c880094c3a8000002eb007c
:100d0000b41c88008760a900f40f2000c41c880070
:100d10000405800004c0a10004d0a00004e0a000ed
:100d2000040588008f60a8008e43a9008e03a900e7
:100d3000f41b80000400a1000410a0000420a10006
:100d4000f41b8800d4ff210084198800d4ff2100ff
:100d5000c419880084aa2000041888004455210082
:100d6000841888000002eb00441888000002eb00a1
:100d7000c41888000002eb00041988000002eb0090
:100d800044198800741b80000400a0000410a10016
:100d9000741b8800741a80000400a1000410a000d5
:100da000741a8800840a2500041b880044852a00e0
:100db000841a8800241b80000430a1000440a10094
:100dc0000450a1000460a000241b8800a41a800025
:100dd0000430a1000440a1000450a1000460a00060
:100de000a41a88000080fa00000006000000fa0043
:100df00081e0a8008c00a90083e0a9008200a8007f
:100e0000a40480000400a1000410a0000420a0009d
:100e1000a40488008400a9008c00a8000080fa00c7
:100e2000000006000000fa004515800084ff2f0036
:100e30000482620044158800a1e2a900a1a2a900d1
:100e4000a062a900041580000480a1000490a10004
:100e500004158800041580000450a0000460a00060
:100e60000470a00004158800a042a800141580009a
:100e700004d0a00004e0a00004f0a0001415880035
:100e8000a342a900a222a900141580000480a10099
:100e90000490a10014158800141580000420a100fe
:100ea0000430a1000440a1000450a10014158800e2
:100eb000a4e2a9002515800004fc2f000482620032
:100ec000f401b300241588002515800004f02100ea
:100ed0000502720024158800341580000400a0006b
:100ee0000410a1000420a1000430a10034158800e2
:100ef000a682a9008560a9008d60a800c4048000b6
:100f000004c0a00004d0a10004e0a000c404880034
:100f10000080fa00000006000000fa00451580007d
:100f20008403200005027200441588001409800023
:100f30000480a1000490a10004a0a100140988006d
:100f400023e1a90023a1a90022e1a90022c1a9004f
:100f50002241a8002221a9002501a80024e1a8001f
:100f6000240980000440a1000450a0000460a100f6
:100f70002409880004ee2200340988000082eb0076
:100f800044098800140980000480a0000490a00097
:100f900004a0a000140988000080fa0000000600e8
:100fa0000000fa00c1e1a900040e80000420a100a5
:100fb0000430a100040e8800040e80000440a1004b
:100fc0000450a1000460a1000470a100040e880078
:100fd000040e80000400a1000410a100040e88008b
:100fe000c901a800c921a800c801a800c821a800fb
:100ff0000002eb00140e880074132000240e8800f9
:101000000080fa00000006000000fa000de2a900ce
:101010000da2a9000d42a8000ce2a80064108000f7
:101020000410a1000420a100641088000c02a90093
:101030000fe2a9000f62a900741080000460a100f3
:101040000470a100741088000ea2a9007400200092
:10105000a41088008540a9008520a900c404800050
:101060000480a0000490a10004a0a000c404880093
:10107000c40480000440a0000450a1000460a0004b
:10108000c40488008d40a8008d20a8000cc2a900cf
:101090000de2a8000f42a8000080fa000000060040
:1010a0000000fa000002eb000408880005e1a90036
:1010b00005a1a90004c1a9000421a90024088000f9
:1010c0000440a1000450a1002408880084382100b5
:1010d000140888008460a9008c60a800a404800023
:1010e00004c0a00004d0a00004e0a000a404880074
:1010f0000080fa00000006000600fa0020079800b1
:101100002e029000040f78000a003700a42c200063
:1011100014079800030037001e0290000402e90043
:10112000140798001e029000e00f5200faff3a00e8
:101130001e0fe9001e027800e00f5200f3ff3a0094
:101140000080fa00000006001000fa00000f78008e
:101150001207980023079800340798004507980065
:101160005607980067079800710798001e027800dc
:101170001e039000ae039000068abe001e02780097
:101180003e039000ce03900026029800370298009c
:101190001e0278005e039000ee0390004602980065
:1011a000570298001e0278003ebb9700cebb970006
:1011b00066029800770298001e027800fe039000f5
:1011c000070a98001e0278001ebb9700aebb97006e
:1011d000360a9800470a98001e0278007eb39700ee
:1011e0008ebb9700760a9800071298001e027800be
:1011f0005eb39700eeb3970036129800471298003e
:101200001e0278003eb39700ceb39700161a9800de
:10121000271a98000080fa00000006000e00fa006d
:10122000881f7800600798005444800024079800c5
:1012300034098000340798006022b8004407980001
:1012400055079800ae0290003e02900004825200c2
:10125000cfa2de000400be005ffc07000002be005b
:1012600044079800550798006e0290001403be00d2
:101270004e029000de0290000401be000600be0097
:101280006dfc07000002be006e039000541398002e
:10129000651398006e029000e412900054129000c2
:1012a000d2cc2c00c3dc23000400be0062fc07008b
:1012b0000002be00048fbe001e02be0018c0b300b4
:1012c00002002800934724000400be0025fc07000c
:1012d00000027800e00f520001003d000044eb00e6
:1012e000e04f540005003200543e20005442880074
:1012f0000002eb00644288002e0037001e02be0090
:1013000018c0b3000200280093472c000400be0060
:1013100012fc070000027800e00f520001003400c8
:101320000044eb00e04f5400050032000002eb00e7
:1013300054428800543e2000644288001d0037005b
:101340001e02be0018c0b3006011b8000400be0049
:1013500002fc070000027800e00f52000100350097
:101360000044eb00e04f54000a0032000002eb00a2
:10137000544288001e02be0005f0a2000400be0018
:10138000fafb07000002be000402780064428800f5
:10139000080037001e02be000400be00f3fb070079
:1013a0000002be0004027800544288000002eb00f4
:1013b000644288004f0478000080fa0000000600b4
:1013c0000200fa00000f78001e027800e40a900084
:1013d000540a90001e037800740b980005139800bf
:1013e0001e027800a4129000141290001e037800d0
:1013f00034139800451398001e027800841a900058
:10140000741290001e037800141b9800251b98008e
:101410000080fa00000006006600fa000042eb00bf
:10142000144798006202470018000900001aeb00f8
:101430008e0278004503b00018000900801aeb0006
:101440000bfe070077fe0700b3fe0700d4fe07007f
:10145000edfe070012ff0700d862a900d882a9009c
:10146000d8a2a9004444800095062000850f5200b0
:101470004100320095062000850f520008003e0012
:10148000e50f52004800320045062000850f52004b
:101490000d003200e30f520057003200de0037002b
:1014a000b5062000850f520083003200b5062000eb
:1014b000850f520054003900c5062000850f5200e8
:1014c000a9003200d4003700dc62a800dc82a90049
:1014d000dca2a90004ee2200340988000002eb001f
:1014e000041488000002eb0034428800a1e2a80046
:1014f000c1e1a8006022b800849fbe006022b8004d
:10150000849fbe006022b800849fbe006022b800a5
:10151000849fbe000400200005122400849fbe00aa
:10152000a10020006033b800d4cc2c00c5dc23001f
:101530000200200003f823000080200002ff0700c3
:10154000f4875700841c80000480a1000490a1004f
:1015500004a0a100841c880000000000851c8000fd
:10156000040e200004826200e00f5200fbff3a00ec
:1015700005e1a800b80037000002eb0054428800e3
:10158000841320006442880004ee2200340988009d
:10159000dc62a900dc82a800dca2a900940620007d
:1015a00044448800ac003700dc62a900dc82a9005a
:1015b000dca2a90064002000641b880034098000bc
:1015c000341b880034428000441b8800e4842000df
:1015d000144278000482fb00541b88006e63a8004c
:1015e00000000000741b800068026200e00f5200df
:1015f000fcff3a0098003700648320001402780052
:1016000054448800940037000042eb0014479800cf
:101610000042eb00044f78001c0037001e4290008f
:101620000483fb009e4278000582fb006583200056
:101630000402420004824200140278004822de00c4
:101640008442780006024700457298001e429000ce
:101650000482fb000403e8009e4278000582fb0040
:1016600065832000040242000482420014027800d4
:101670008442780006024700457298001e4290009e
:1016800004c2e800144798001e4fe8001e4278008c
:10169000e24f5200e1ff3600440320000e024200f8
:1016a0000400780028fd07000002be000440880006
:1016b00015408800680037000042eb00144798008e
:1016c0000042eb00044f78001c0037001e429000df
:1016d0000483fb009e4278000582fb0065832000a6
:1016e0000402420004824200140278004822de0014
:1016f0008442780006024700457298001e4290001e
:101700000482fb000403e8009e4278000582fb008f
:101710006583200004024200048242001402780023
:101720008442780006024700457298001e429000ed
:1017300004c2e800144798001e4fe8001e427800db
:10174000e24f5200e1ff3600440320000e02420047
:1017500004007800fcfc07000002be002440880062
:10176000354088003c0037000042eb0014479800e9
:101770000042eb00044f78001c0037001e4290002e
:101780000483fb009e4278000582fb0065832000f5
:101790000402420004824200140278004822de0063
:1017a0008442780006024700457298001e4290006d
:1017b0000482fb000403e8009e4278000582fb00df
:1017c0006583200004024200048242001402780073
:1017d0008442780006024700457298001e4290003d
:1017e00004c2e800144798001e4fe8001e4278002b
:1017f000e24f5200e1ff3600440320000e02420097
:1018000004007800d0fc07000002be0044408800bd
:101810005540880010003700dc62a900dc82a90076
:10182000e41680004522de00614262000404a2004a
:10183000614262000482fb00610262004522dd0019
:10184000e6168000f5fd2f00850263000502720098
:10185000e416880000000000454480004406200093
:10186000848f52000400320054428000b40e88007d
:1018700064428000c40e8800a00020001efe070005
:10188000f8fe37003600f800809fbe00849fbe003f
:10189000861f78000200fa008560a9000002eb00b4
:1018a000040f780014448000f80f52000600360040
:1018b0000002eb001444880014c0b3008440780098
:1018c000608820000148780014448000f80f52001e
:1018d00002003a000002eb00040f780005148000bb
:1018e00074072000848f52003a003e0014448000a8
:1018f0000514800004034200048520000402430014
:10190000050a78006488200014427800e04f5200f5
:101910000f003a0014448000840242000485200035
:101920000482420094027800244480000482420031
:101930002444880025448000144480000402e80008
:10194000110009008482d800000278003442880027
:101950006488200014427800e14f520017003a00da
:101960000002eb00244488000002eb00040f780022
:10197000090037001e02780084024200048520001e
:1019800004824200940278002444800004824200d1
:10199000244488001e0fe8001e027800f80f520051
:1019a000f4ff360025448000940120001100090056
:1019b0008482d800000278003442880035428000da
:1019c00084072000848f520002003600e4062000c5
:1019d00034428800144480000402e8001444880063
:1019e0000080fa004f0378004f02be004f00be0097
:1019f0003600f900004006000000fa008400a9004b
:101a00000080fa0000400600849fbe000000fa003b
:101a10008760a900b41c800064026200e00f5200dd
:101a2000010032009643a900b41c800061026200ec
:101a3000e00f5200100032009603a900351c800010
:101a400064832000050a7800451c80006483200020
:101a500015029800551c8000648320002502980020
:101a6000651c80006483200035029800641c80009f
:101a7000444488008ee3a900b41c80006202620026
:101a8000e00f52000e0032009623a900b51b800023
:101a9000e4832000050a7800c51b8000e483200051
:101aa00015029800d51b8000e483200025029800d1
:101ab000e51b8000e4832000350298007ee3a90046
:101ac0000080fa004f02be00004006000000fa004d
:101ad0008540a9000080fa00004006000000fa00de
:101ae0008520a9000080fa00004006003600f800ba
:101af000809fbe00829fbe00849fbe00869fbe0066
:101b00000000fa008460a90000802000c3fd0700e7
:101b10000080fa004f03be004f02be004f01be001e
:0c1b20004f00be003600f9000040060037
:020000040000fa
:101b2c000008000088000000000000008808000089
:101b3c0004000000020000006400e0002e00000021
:101b4c008c080000020000000000000000000000f3
:020000040000fa
:0200000401f009
:04000000f2bf00004b
:020000040000fa
:0200000401f009
:04000400ff7f00007a
:020000040000fa
:0200000401f009
:04000800ffff0000f6
:020000040000fa
:0200000401f009
:04001400ffff0000ea
:020000040000fa
:0200000401f009
:04001800ffff0000e6
:00000001FF
