:020000040000fa
:080000000001040000000000f3
:020000040000fa
:100008009a0100009a0100009a0100009a0100007c
:100018009a0100009a0100009a0100009a0100006c
:10002800920d00009a0100009a0100009a01000058
:100038009a0100009a0100009a0100009a0100004c
:100048009a010000040e0000fc0d0000820d000063
:100058009a0100009a0100009a0100009a0100002c
:100068009a0100009a0100009a0100009a0100001c
:100078009a0100009a0100009a0100009a0100000c
:100088009a0100009a0100009a0100009a0d0000f0
:100098009a0100009a0100009a0100009a010000ec
:1000a8009a0100009a0100009a0100009a010000dc
:1000b8009a0100009a0100009a0100009a010000cc
:1000c8009a0100009a0100009a0100009a010000bc
:1000d8009a0100009a0100009a0100009a010000ac
:1000e8009a0100009a0100009a0100009a0100009c
:0800f8009a0100009a010000ca
:020000040000fa
:100108009a0100009a0100009a0100009a0100007b
:100118009a0100009a0100009a0100009a0100006b
:10012800920d00009a0100009a0100009a01000057
:100138009a0100009a0100009a0100009a0100004b
:100148009a010000040e0000fc0d0000820d000062
:100158009a0100009a0100009a0100009a0100002b
:100168009a0100009a0100009a0100009a0100001b
:100178009a0100009a0100009a0100009a0100000b
:100188009a0100009a0100009a0100009a0d0000ef
:100198009a0100009a0100009a0100009a010000eb
:1001a8009a0100009a0100009a0100009a010000db
:1001b8009a0100009a0100009a0100009a010000cb
:1001c8009a0100009a0100009a0100009a010000bb
:1001d8009a0100009a0100009a0100009a010000ab
:1001e8009a0100009a0100009a0100009a0100009b
:0801f8009a0100009a010000c9
:020000040000fa
:100200002f8220000eff20000e0188000000000059
:10021000000020000000e000020032000001200089
:10022000200288000c000700c0e020000100200030
:1002300011000700000020000000e0000200320072
:100240000000020000000000fe0a020000000000a2
:100250000040da000000fe004440a9000000200039
:100260000000e0000300320000002000a001880030
:100270004440a8000000060091018800800078003a
:100280000000eb0015003700e280400032a0b4000f
:100290009101ba00e280400032a0b4009102ba009d
:1002a000e280400032a0b4000002eb00472bde00e9
:1002b000f507b200602ce10004003a000059eb00a1
:1002c0008301e900fdff3e00040037006128e100e2
:1002d000010032000082eb00040007001101ba00a7
:1002e0000200e000e8ff3a00000006003159ba00c1
:1002f0008301e9000c0032002159ba008301e900b2
:10030000080032000400e00003003a00e2804000f0
:1003100032a0b400f5ff370011d9ba008301e9001b
:10032000faff3a008100e800e180400032a0b4000a
:10033000000006000040da000000fe006900e10055
:10034000040035006d00e100030034000002b1003c
:1003500001003200000005001000050003f0a200bb
:10036000889fbe008a9fbe008c1f7800f7000700a0
:10037000fe0033006450e1004f0032006420e100d1
:100380005200320003826c0007003b000905d000d8
:100390000306d000820f54000c065d0002003900f5
:1003a000020032008901780003067800858255003a
:1003b00004003d000003fd008103fd008502ea000a
:1003c0008b854200840f720002003b006000100029
:1003d000e08018006011b8000005eb007a28e10009
:1003e0000a00390006007800c75ddd00f707b2009b
:1003f000878075002d003700828171000a01780026
:10040000610560008180d1000080d3008502e90091
:10041000f9ff3b00060440008784480002003b00cf
:1004200060041400e0841c000988a3000700320067
:100430008a81710082817100610164008904d100a8
:100440000884d3008b05e800170037000978a30063
:1004500013003a000b00e000130034008b05e900a4
:100460000804440089844c000a4474000978a300fd
:100470000d003a000b00e000070034008b05e90096
:100480000804440089844c0001003a000b0020005d
:100490000978a300f7ff32000001eb0002003700eb
:1004a000828171000a0178006d0007000cf0a7003e
:1004b00001f0a000b60037006420e10002003a001d
:1004c000838f6c00b60033000801be000200be003e
:1004d000af003700889fbe008a9fbe008c1f780047
:1004e0009a000700a100330003866c006450e1000d
:1004f0002e0032006420e100330032006150e10040
:100500002f0032006120e100310032008585550066
:10051000eb07b000090020000804200005003700a8
:100520000804440089844c000a003100060343009b
:1005300087834b000001530081815b00f8ff33008b
:100540000203be000800a0000804440089844c0097
:10055000f6ff3900c639dd00830173000100320067
:10056000130020008904d1000884d3000998a30057
:10057000050032000800a7000300a0008904d10094
:100580000884d3008b05e8008904d1000884d300d7
:100590000001eb000281d2003100070001f0a10050
:1005a0000cf0a70001f0a000790037006420e10002
:1005b0007b0032000801be000200be00f7ff3700da
:1005c0006120e100760032006000b800f3ff3700e0
:1005d0000000200001f82700f0ff37001400200081
:1005e000a6003700f4ff2f00a40037000001be0072
:1005f000410007000470a70003f0a10003f8a30066
:1006000013003a006509b1001000320009003500fe
:100610006928e10002003500010028000000050003
:1006200000004000818048008502e900fcff3a009c
:1006300000000600f88f4200050035008100d1005f
:100640000080d3008502e800fcff3a0000000600ad
:100650008000eb00000005006011b800a200370028
:1006600081002000618055000b003d000b00200040
:1006700061fe2f000100e1001d0034008281710045
:10068000610164008904d1000884d3000000e800ff
:10069000faff3a007100200061006400030070005e
:1006a000020060000900320061044400e0844c0054
:1006b0000988a500050032008b05e8006808e10004
:1006c00002003a008904d1000884d300f20f200010
:1006d0000258e10005003d00c75ddd00f907b200ea
:1006e0008980750008007800000006000bf82700dc
:1006f0008b00780000000500c70ade00f107b20099
:10070000f50fb20008003200e1cf420002003200d3
:100710000170a00024000500810f7000010032006c
:100720000408050044000500810f700002003a0033
:10073000140005008502e9000000400081c0480067
:10074000fcff3b000170a000240005000004be0077
:10075000e9ff07000003be000405be000200be0062
:10076000e5ff0700844f7500000006000200be0090
:100770006450e100050036006420e100020036000c
:100780000968a30001003a000800be000160a00053
:100790004f0678004f05be004f04be000000060063
:1007a000f0ff2f00f1ff2700f9ff3700889fbe0000
:1007b0008a9fbe008c1f7800e4ff0700ebff330028
:1007c00003866c006450e100240032006420e100e4
:1007d000270032006150e100220032006120e10078
:1007e000210032008b854200eb07b1000134b800d4
:1007f000003ab8000804420089844a00013ab8006f
:100800000030b8008880400009014a00040033002d
:100810000000400081804800020149008b05e9008a
:10082000c909dd00830170000100320013002000bf
:10083000c814de004814dd004709de001200b200d3
:10084000c808de000884700085ff070001f0a100e1
:100850000cf0a70001f0a000cdff37006120e100ff
:10086000cfff32000801be000200be00f7ff3700d4
:100870006150e100fcff3a00c9ff3700889fbe00cd
:100880008a9fbe00841f7800b0ff07004f007800e9
:1008900011003300f0ff2f00838f6c0006003b0037
:1008a000040565000a00a7000800370009f0a6004b
:1008b0001000200008003700820f5400838f5c0076
:1008c000030039001000200001003e00000020005d
:1008d00009f0a7000000ea004f05be004f04be006b
:1008e0000000e00000000600889fbe008a9fbe0056
:1008f0000082700004027100048271002600320040
:100900000004be000200be006011b8006b092000a8
:10091000950220000182cf000a0039000541b10094
:100920000082cf00070039000541b1000982cf00e5
:10093000040039000541b1000882cf0001003900f0
:100940000541b10005425200120032000a003b008e
:1009500082817100610164008100d1000080d300b8
:100960008984d3000884d3008b05e8000442e800a2
:10097000f7ff3a00070037000804440089844c0060
:1009800000004800818048008b05e9000442e9002e
:10099000f9ff3a0032ff07004f05be004f04be00ca
:1009a00000000600ea874700889fbe008a9fbe00bd
:1009b000810578008c9fbe008e1f7800e08f550067
:1009c00001003200800d7800000578008a0478006c
:1009d000090578003a06fb000c00780057fe070076
:1009e000e00f5000f9ff3a00d4022000840f5600b7
:1009f00003003a008a04780018c0b30005003700ed
:100a000000447800b4022000840f560001003a0030
:100a10008a0478008006eb006000b8000d057800bd
:100a20000ecdb300e4c2b300010037008904e80032
:100a3000890278007003640004003a00994f1200a4
:100a400002003a000844a000f8ff37001946780079
:100a50000c03fb000603b100e90f530017003e0032
:100a60000814a0008802fb00e98f56000f00320036
:100a7000f0826200010032000a05e900e4b79f003d
:100a8000a2002000030020008d06e800c20007003d
:100a90000e4346006fb297000683fb00070020005c
:100aa0000000430081804b00e0ff3700f0826200cd
:100ab000deff3a000a05e800dcff370054c6b30049
:100ac000844f5600040032008006eb0054c4b3008b
:100ad000844f56002e003a0059427800d5c2b30028
:100ae000854f520002003a000834a000030037008e
:100af000b5c2b300854f520001003a008904e800f6
:100b000007c3b300890278008504780004c3b300ea
:100b100039437800874f5300faff32008603fb0009
:100b20008006eb000703b100e98f530015003e007b
:100b30008902780084465300154378008d86fb00b7
:100b40008603fb000703b100e98f53000d003e0050
:100b50006a69b90084465300554378008d86fb00ce
:100b60008603fb00828646000703b100e98f53002d
:100b700004003e006a69b900844653008d86fb007c
:100b80008286460068026400010032008d06ea0099
:100b9000e08f550003003200620264000100320061
:100ba000850d7800790007006011b8000002be00d2
:100bb0000003be00e4b79f00d5b79f00f4b79f00c5
:100bc00087bf9f0085fe07006fb297000001780085
:100bd000dfb297006000b8007fb397008fbb97002b
:100be000e00f5100600032000a85460032f82f0005
:100bf000820f550003003d002402200004418800bc
:100c00005900370000082000800f5500070034000d
:100c10002402200061046400044188004d00320079
:100c20000000200001f82f004f003700e00f5500b2
:100c30001f003d000a05ea00060037000400be0060
:100c4000922f2000530125006a05550021fe070060
:100c50000002be00e90f5500f8ff3c000600370017
:100c60000400be0002002000031224000a05e9006f
:100c700018fe07000002be00e00f5500f8ff3a0022
:100c80000403be00020020000308200087bf9f006d
:100c90000400be00f4b79f0050fe07007fb397002a
:100ca0008fbb9700e00f500025003d001f0037006c
:100cb000e00f550007003a00210037000400be0095
:100cc000922f2000530125006a055500b7fe07004a
:100cd0000002be00e94f5500f8ff3e000600370055
:100ce0000400be0002002000031224000a05e900ef
:100cf000aefe07000002be00e00f5500f8ff3a000c
:100d00000403be00f2ff2f00f3f7270087bf9f0008
:100d10000400be00f4b79f0032fe07007fb39700c7
:100d20008fbb9700e00f50000500340061046400a1
:100d30000b00320000002000010828000a003700e4
:100d4000610464000100320007f0a2000600be004a
:100d5000050037000000200001f8270002003700de
:100d600000002000010820004f0778004f06be0059
:100d70004f05be004f04be00af00b10000000600ea
:100d800008ff37008000eb0006ff37004f89de00c8
:100d90008201780006003700020ab900001bb90082
:100da0000200b800810042008100430000000600fc
:100db000881f7800030478000300e00007003d006e
:100dc00060001000e080180060011900e081190047
:100dd00002003b0001f02d0003003700c2fe0700b7
:100de00008f0a70001f0a0004f0478000000060002
:020000040000fa
:100df0000000fa00841c80000480a1000490a1007f
:100e000004a0a000841c880091e3a80091a3a9007d
:100e10009163a900941c80000460a1000470a100eb
:100e2000941c8800951c800004fc2f000482620042
:100e30000430a000941c880094e3a800a41c800047
:100e40000400a0000410a1000420a100a41c88003c
:100e5000a41c80000430a1000440a0000450a000a5
:100e6000a41c8800a41c80000480a0000490a100a1
:100e700004a0a000a41c880094c3a8000002eb00fa
:100e8000b41c88008760a900f40f2000c41c8800ef
:100e90000405800004c0a00004d0a00004e0a0006d
:100ea000040588008f60a8008e43a9008e03a90066
:100eb000f41b80000400a1000410a0000420a10085
:100ec000f41b8800d4ff210084198800d4ff21007e
:100ed000c419880084aa2000041888004455210001
:100ee000841888000002eb00441888000002eb0020
:100ef000c41888000002eb00041988000002eb000f
:100f000044198800741b80000400a0000410a10094
:100f1000741b8800741a80000400a1000410a00053
:100f2000741a8800840a2500041b880044852a005e
:100f3000841a8800241b80000430a1000440a10012
:100f40000450a1000460a000241b8800a41a8000a3
:100f50000430a1000440a1000450a1000460a000de
:100f6000a41a88000080fa00000006000000fa00c1
:100f700081e0a8008c00a90083e0a9008200a800fd
:100f8000a40480000400a1000410a0000420a0001c
:100f9000a40488008400a9008c00a8000080fa0046
:100fa000000006000000fa004515800094ff2f00a5
:100fb0000482620044158800a1e2a900a1a2a90050
:100fc000a062a900041580000480a1000490a10083
:100fd00004158800041580000450a0000460a000df
:100fe0000470a00004158800a042a8001415800019
:100ff00004d0a00004e0a00004f0a00014158800b4
:10100000a342a900a222a900141580000480a10017
:101010000490a10014158800141580000420a1007c
:101020000430a1000440a1000450a1001415880060
:10103000a4e2a9002515800004fc2f0004826200b0
:10104000f401b300241588002515800004f0210068
:101050000502720024158800341580000400a000e9
:101060000410a1000420a1000430a1003415880060
:10107000a682a9008560a9008d60a800c404800034
:1010800004c0a00004d0a10004e0a000c4048800b3
:101090000080fa00000006000000fa0045158000fc
:1010a00084032000050272004415880014098000a2
:1010b0000480a1000490a10004a0a10014098800ec
:1010c00023e1a90023a1a90022e1a90022c1a900ce
:1010d0002241a8002221a9002501a80024e1a8009e
:1010e000240980000440a1000450a0000460a10075
:1010f0002409880004ee2200340988000082eb00f5
:1011000044098800140980000480a0000490a00015
:1011100004a0a000140988000080fa000000060066
:101120000000fa00c1e1a900040e80000420a10023
:101130000430a100040e8800040e80000440a100c9
:101140000450a1000460a1000470a100040e8800f6
:10115000040e80000400a1000410a100040e880009
:10116000c901a800c921a800c801a800c821a80079
:101170000002eb00140e880074132000240e880077
:101180000080fa00000006000000fa000de2a9004d
:101190000da2a9000d42a8000ce2a8006410800076
:1011a0000410a1000420a100641088000c02a90012
:1011b0000fe2a9000f62a900741080000460a10072
:1011c0000470a100741088000ea2a9001400200071
:1011d000a41088008540a9008520a900c4048000cf
:1011e0000480a0000490a10004a0a000c404880012
:1011f000c40480000440a0000450a1000460a000ca
:10120000c40488008d40a8008d20a8000cc2a9004d
:101210000de2a8000f42a8000080fa0000000600be
:101220000600fa00200798002e029000040f7800b4
:101230000a003700a42c2000140798000300370090
:101240001e0290000402e900140798001e0290009c
:10125000e00f5200faff3a001e0fe9001e0278006c
:10126000e00f5200f3ff3a000080fa000000060091
:101270001000fa00000f780012079800230798006a
:1012800034079800450798005607980067079800ac
:10129000710798001e0278001e039000ae039000b4
:1012a000068abe001e0278003e039000ce03900026
:1012b00026029800370298001e0278005e03900014
:1012c000ee03900046029800570298001e02780034
:1012d0003ebb9700cebb970066029800770298004d
:1012e0001e027800fe039000070a98001e02780094
:1012f0001ebb9700aebb9700360a9800470a9800bd
:101300001e0278007eb397008ebb9700760a980085
:10131000071298001e0278005eb39700eeb39700a4
:1013200036129800471298001e0278003eb39700cc
:10133000ceb39700161a9800271a98000080fa007a
:10134000000006000e00fa00881f780020079800b1
:1013500032079800430798005407980065079800e3
:101360002e0290005e039000ee039000560a980053
:10137000670a98005e019000ee0190003e00900028
:10138000ce009000f5fb07000002be002e03900087
:1013900074139800051b98002e029000741390009f
:1013a000841b90002e029000a41a9000141a900042
:1013b0000401be000600be00e9fb07000002be00fb
:1013c0002e039000140b9800250b98002e0290001d
:1013d00074139000841b90002e029000a41a9000b9
:1013e000141a90000401be000600be00dbfb0700db
:1013f0000002be002e0390001413980025139800dd
:101400002e0290001403be002e029000841a900059
:10141000741290000401be000600be00e3fc070049
:101420000002be002e03900054139800651398002c
:101430002e029000e4129000541290003e019000a1
:10144000ce0190000400be0022fc07000002be0096
:101450000401be000400be00c1fb07000002be0084
:1014600002002000c33924000400be00cffc0700a6
:101470000002be000200200003f823000400be00aa
:10148000b6fb07000002be00048fbe0018c0b30008
:1014900002002c00b34124001e00be0051fc0700d6
:1014a00000027800e00f520001003d000044eb0014
:1014b000e04f540005003200f4262000d44088009c
:1014c0000002eb00e44088003300370018c0b3008e
:1014d00002002c00b3412c001e00be003ffc0700a0
:1014e00000027800e00f5200010034000044eb00dd
:1014f000e04f5400050032000002eb00d4408800a9
:10150000f4262000e44088002300370018c0b30010
:101510006011b8001e00be0030fc07000002780019
:10152000e00f5200010035000044eb00e04f540092
:101530000d0032000002eb00d440880002002000c1
:1015400003002c001e00be0098fc07000002be0035
:101550000400be0025fc07000002be000402780063
:10156000e44088000c0037001e02be000401be00eb
:101570000400be007afb07000002be000400be00ab
:101580001afc07000002be0004027800d440880064
:101590000002eb00e44088004f0478000080fa006d
:1015a000000006000200fa00000f78001e0278001a
:1015b000e40a9000540a90001e037800740b98000f
:1015c000051398001e027800a412900014129000d7
:1015d0001e03780034139800451398001e0278000b
:1015e000841a9000741290001e037800141b980057
:1015f000251b98000080fa0000000600a600fa00f3
:101600000042eb00144798006c02470018000900e4
:10161000001aeb008e027800e503b0001800090004
:10162000801aeb00f2fd07005efe07009afe07003d
:10163000bbfe0700d4fe0700d862a900d882a9002b
:10164000d8a2a9006022b8002407980035079800a6
:101650006022b800440798005507980004ee220065
:1016600014079800f440800095062000850f520072
:101670003f00320095062000850f520008003e0012
:10168000e30f52004600320045062000850f52004d
:101690000d003200e10f520053003200da00370033
:1016a000b5062000850f52007f003200b5062000ed
:1016b000850f520050003900c5062000850f5200ea
:1016c000a5003200d0003700dc62a800dc82a9004f
:1016d000dca2a90004ee220034098800a1e2a800df
:1016e000c1e1a800000720000e0040006022b80001
:1016f000849fbe006022b800849fbe006022b800b4
:10170000849fbe006022b800849fbe0004002000b9
:1017100005122400849fbe00a10020006033b800a1
:10172000d4cc2c00c5dc23000200200003f82300e9
:10173000cffe0700f4875700841c80000480a100be
:101740000490a10004a0a100841c880000000000f7
:10175000851c8000040e200004826200e00f52000d
:10176000fbff3a0084002000f4408800da003700d4
:101770000002eb00d440880024072000e4408800e9
:1017800004ee220034098800dc62a900dc82a80093
:10179000dca2a90094062000f4408800ce003700a7
:1017a000dc62a900dc82a900dca2a90044002000c0
:1017b000641b880034098000341b8800441c8000ae
:1017c000441b8800541c8000541b88006e63a800d2
:1017d00000000000741b800068026200e00f5200ed
:1017e000fcff3a00bc00370004802000940278001f
:1017f00015079800b80037000042eb001447980026
:101800000042eb00044f78001c0037001e4290009d
:101810000483fb009e4278000582fb0005802000c7
:101820000402420004824200140278004822de00d2
:101830008442780006024700657a98001e429000b4
:101840000482fb000403e8009e4278000582fb004e
:101850000580200004024200048242001402780045
:101860008442780006024700657a98001e42900084
:1018700004c2e800144798001e4fe8001e4278009a
:10188000e24f5200e1ff3600e40320000e02420066
:10189000040078003bfd07000002be00043f9800f2
:1018a000153f98008c0037000042eb001447980069
:1018b0000042eb00044f78001c0037001e429000ed
:1018c0000483fb009e4278000582fb000580200017
:1018d0000402420004824200140278004822de0022
:1018e0008442780006024700657a98001e42900004
:1018f0000482fb000403e8009e4278000582fb009e
:101900000580200004024200048242001402780094
:101910008442780006024700657a98001e429000d3
:1019200004c2e800144798001e4fe8001e427800e9
:10193000e24f5200e1ff3600e40320000e024200b5
:10194000040078000ffd07000002be00243f98004d
:10195000353f9800600037000042eb0014479800c4
:101960000042eb00044f78001c0037001e4290003c
:101970000483fb009e4278000582fb000580200066
:101980000402420004824200140278004822de0071
:101990008442780006024700657a98001e42900053
:1019a0000482fb000403e8009e4278000582fb00ed
:1019b00005802000040242000482420014027800e4
:1019c0008442780006024700657a98001e42900023
:1019d00004c2e800144798001e4fe8001e42780039
:1019e000e24f5200e1ff3600e40320000e02420005
:1019f00004007800e3fc07000002be00443f9800aa
:101a0000553f980034003700dc62a900dc82a90051
:101a1000e41680004522de00614262000404a20058
:101a2000614262000482fb00610262004522dd0027
:101a3000e6168000f5fd2f008502630005027200a6
:101a4000e416880034098000050020000400be0070
:101a500001fb07000002be00c21e250083db23003d
:101a60000400be0051fb07000002be0044079800be
:101a7000550798001e029000050020000400be00db
:101a8000f5fa07000002be00c21e250083db23001a
:101a90000400be0045fb07000002be0024079800ba
:101aa00035079800060720000e0343004e02900001
:101ab000de0290002e019000be019000060078002a
:101ac00020fe0700040720000e02420004007800f8
:101ad000b4fe070000000000f5408000440620002e
:101ae000848f520004003200d4408000b40e88007d
:101af000e4408000c40e8800a0002000c8fd07005c
:101b0000d8fe3700841f78000000fa008560a90025
:101b100004148000b44088000080fa004f0278006e
:101b2000004006000000fa008400a9000080fa00ce
:101b300000400600849fbe000000fa008760a900f4
:101b4000b41c800064026200e00f52000100320009
:101b50009643a900b41c800061026200e00f5200ad
:101b6000100032009603a900351c8000048020007c
:101b7000050a7800451c80000480200015029800aa
:101b8000551c80000480200025029800651c800000
:101b90000480200035029800641c8000f440880016
:101ba0008ee3a900b41c800062026200e00f5200c4
:101bb0000e0032009623a900b51b8000848020000f
:101bc000050a7800c51b800084802000150298005b
:101bd000d51b80008480200025029800e51b800032
:101be00084802000350298007ee3a9000080fa007e
:101bf0004f02be00004006000000fa008540a90028
:101c00000080fa00004006000000fa008520a900cc
:081c10000080fa00004006000c
:020000040000fa
:101c1800000800001e000000000000001e08000070
:101c2800020000000200000064000000200800001c
:0c1c38000200000000000000000000009e
:020000040000fa
:0200000401f009
:04000000f2bf00004b
:020000040000fa
:0200000401f009
:04000400ff7f00007a
:020000040000fa
:0200000401f009
:04000800ffff0000f6
:020000040000fa
:0200000401f009
:04001400ffff0000ea
:020000040000fa
:0200000401f009
:04001800ffff0000e6
:00000001FF
